:0D090A000B087E306D79335B5F707F7B8062
:1008F1007E80EE6013C2925F6004D2908002C2904B
:08090100D292EEC313FE80EA5E
:0109090022CB
:0D091800C2911208F1AF051208F1D2912230
:1008D300D2917D017F0C1209187D077F0A12091836
:0E08E300E4FD7F0F1209187D037F0B02091838
:10088C00E4F580F590F5A01208D3AD087F011209AC
:10089C0018AD097F02120918AD0A7F03120918ADB1
:1008AC000B7F0412091820B2FDAD097F0112091843
:1008BC00AD117F02120918AD107F03120918AD118A
:0708CC007F0412091880DF10
:03000000020800F3
:0C080000787FE4F6D8FD758112020847ED
:10080C0002088CE493A3F8E493A34003F68001F26E
:10081C0008DFF48029E493A3F85407240CC8C333ED
:10082C00C4540F4420C8834004F456800146F6DFBC
:10083C00E4800B010204081020408090090AE47E39
:10084C00019360BCA3FF543F30E509541FFEE493B1
:10085C00A360010ECF54C025E060A840B8E493A378
:10086C00FAE493A3F8E493A3C8C582C8CAC583CAA3
:10087C00F0A3C8C582C8CAC583CADFE9DEE780BE5B
:0109170000DF
:00000001FF
